{
  "_format": "hh-sol-artifact-1",
  "contractName": "CryptoOgr",
  "sourceName": "src/contracts/CryptoOgr.sol",
  "abi": [
    {
      "inputs": [
        {
          "internalType": "string",
          "name": "_name",
          "type": "string"
        },
        {
          "internalType": "string",
          "name": "_symbol",
          "type": "string"
        },
        {
          "internalType": "string",
          "name": "_initBaseURI",
          "type": "string"
        }
      ],
      "stateMutability": "nonpayable",
      "type": "constructor"
    },
    {
      "anonymous": false,
      "inputs": [
        {
          "indexed": true,
          "internalType": "address",
          "name": "owner",
          "type": "address"
        },
        {
          "indexed": true,
          "internalType": "address",
          "name": "approved",
          "type": "address"
        },
        {
          "indexed": true,
          "internalType": "uint256",
          "name": "tokenId",
          "type": "uint256"
        }
      ],
      "name": "Approval",
      "type": "event"
    },
    {
      "anonymous": false,
      "inputs": [
        {
          "indexed": true,
          "internalType": "address",
          "name": "owner",
          "type": "address"
        },
        {
          "indexed": true,
          "internalType": "address",
          "name": "operator",
          "type": "address"
        },
        {
          "indexed": false,
          "internalType": "bool",
          "name": "approved",
          "type": "bool"
        }
      ],
      "name": "ApprovalForAll",
      "type": "event"
    },
    {
      "anonymous": false,
      "inputs": [
        {
          "indexed": true,
          "internalType": "address",
          "name": "previousOwner",
          "type": "address"
        },
        {
          "indexed": true,
          "internalType": "address",
          "name": "newOwner",
          "type": "address"
        }
      ],
      "name": "OwnershipTransferred",
      "type": "event"
    },
    {
      "anonymous": false,
      "inputs": [
        {
          "indexed": false,
          "internalType": "uint256",
          "name": "id",
          "type": "uint256"
        },
        {
          "indexed": true,
          "internalType": "address",
          "name": "buyer",
          "type": "address"
        },
        {
          "indexed": false,
          "internalType": "uint256",
          "name": "cost",
          "type": "uint256"
        },
        {
          "indexed": true,
          "internalType": "string",
          "name": "tokenURI",
          "type": "string"
        },
        {
          "indexed": false,
          "internalType": "uint256",
          "name": "timestamp",
          "type": "uint256"
        }
      ],
      "name": "Sale",
      "type": "event"
    },
    {
      "anonymous": false,
      "inputs": [
        {
          "indexed": true,
          "internalType": "address",
          "name": "from",
          "type": "address"
        },
        {
          "indexed": true,
          "internalType": "address",
          "name": "to",
          "type": "address"
        },
        {
          "indexed": true,
          "internalType": "uint256",
          "name": "tokenId",
          "type": "uint256"
        }
      ],
      "name": "Transfer",
      "type": "event"
    },
    {
      "inputs": [
        {
          "internalType": "address",
          "name": "to",
          "type": "address"
        },
        {
          "internalType": "uint256",
          "name": "tokenId",
          "type": "uint256"
        }
      ],
      "name": "approve",
      "outputs": [],
      "stateMutability": "nonpayable",
      "type": "function"
    },
    {
      "inputs": [
        {
          "internalType": "address",
          "name": "owner",
          "type": "address"
        }
      ],
      "name": "balanceOf",
      "outputs": [
        {
          "internalType": "uint256",
          "name": "",
          "type": "uint256"
        }
      ],
      "stateMutability": "view",
      "type": "function"
    },
    {
      "inputs": [],
      "name": "baseExtension",
      "outputs": [
        {
          "internalType": "string",
          "name": "",
          "type": "string"
        }
      ],
      "stateMutability": "view",
      "type": "function"
    },
    {
      "inputs": [],
      "name": "baseImage",
      "outputs": [
        {
          "internalType": "string",
          "name": "",
          "type": "string"
        }
      ],
      "stateMutability": "view",
      "type": "function"
    },
    {
      "inputs": [],
      "name": "cost",
      "outputs": [
        {
          "internalType": "uint256",
          "name": "",
          "type": "uint256"
        }
      ],
      "stateMutability": "view",
      "type": "function"
    },
    {
      "inputs": [],
      "name": "getAllNFTs",
      "outputs": [
        {
          "components": [
            {
              "internalType": "uint256",
              "name": "id",
              "type": "uint256"
            },
            {
              "internalType": "address",
              "name": "buyer",
              "type": "address"
            },
            {
              "internalType": "uint256",
              "name": "cost",
              "type": "uint256"
            },
            {
              "internalType": "string",
              "name": "tokenURL",
              "type": "string"
            },
            {
              "internalType": "uint256",
              "name": "timestamp",
              "type": "uint256"
            }
          ],
          "internalType": "struct CryptoOgr.SaleStruct[]",
          "name": "",
          "type": "tuple[]"
        }
      ],
      "stateMutability": "view",
      "type": "function"
    },
    {
      "inputs": [
        {
          "internalType": "uint256",
          "name": "tokenId",
          "type": "uint256"
        }
      ],
      "name": "getAnNFTs",
      "outputs": [
        {
          "components": [
            {
              "internalType": "uint256",
              "name": "id",
              "type": "uint256"
            },
            {
              "internalType": "address",
              "name": "buyer",
              "type": "address"
            },
            {
              "internalType": "uint256",
              "name": "cost",
              "type": "uint256"
            },
            {
              "internalType": "string",
              "name": "tokenURL",
              "type": "string"
            },
            {
              "internalType": "uint256",
              "name": "timestamp",
              "type": "uint256"
            }
          ],
          "internalType": "struct CryptoOgr.SaleStruct",
          "name": "",
          "type": "tuple"
        }
      ],
      "stateMutability": "view",
      "type": "function"
    },
    {
      "inputs": [
        {
          "internalType": "uint256",
          "name": "tokenId",
          "type": "uint256"
        }
      ],
      "name": "getApproved",
      "outputs": [
        {
          "internalType": "address",
          "name": "",
          "type": "address"
        }
      ],
      "stateMutability": "view",
      "type": "function"
    },
    {
      "inputs": [
        {
          "internalType": "address",
          "name": "owner",
          "type": "address"
        },
        {
          "internalType": "address",
          "name": "operator",
          "type": "address"
        }
      ],
      "name": "isApprovedForAll",
      "outputs": [
        {
          "internalType": "bool",
          "name": "",
          "type": "bool"
        }
      ],
      "stateMutability": "view",
      "type": "function"
    },
    {
      "inputs": [],
      "name": "maxSupply",
      "outputs": [
        {
          "internalType": "uint256",
          "name": "",
          "type": "uint256"
        }
      ],
      "stateMutability": "view",
      "type": "function"
    },
    {
      "inputs": [],
      "name": "name",
      "outputs": [
        {
          "internalType": "string",
          "name": "",
          "type": "string"
        }
      ],
      "stateMutability": "view",
      "type": "function"
    },
    {
      "inputs": [],
      "name": "owner",
      "outputs": [
        {
          "internalType": "address",
          "name": "",
          "type": "address"
        }
      ],
      "stateMutability": "view",
      "type": "function"
    },
    {
      "inputs": [
        {
          "internalType": "uint256",
          "name": "tokenId",
          "type": "uint256"
        }
      ],
      "name": "ownerOf",
      "outputs": [
        {
          "internalType": "address",
          "name": "",
          "type": "address"
        }
      ],
      "stateMutability": "view",
      "type": "function"
    },
    {
      "inputs": [],
      "name": "paused",
      "outputs": [
        {
          "internalType": "bool",
          "name": "",
          "type": "bool"
        }
      ],
      "stateMutability": "view",
      "type": "function"
    },
    {
      "inputs": [
        {
          "internalType": "address",
          "name": "to",
          "type": "address"
        },
        {
          "internalType": "uint256",
          "name": "amount",
          "type": "uint256"
        }
      ],
      "name": "payTo",
      "outputs": [],
      "stateMutability": "nonpayable",
      "type": "function"
    },
    {
      "inputs": [],
      "name": "payToMint",
      "outputs": [],
      "stateMutability": "payable",
      "type": "function"
    },
    {
      "inputs": [],
      "name": "renounceOwnership",
      "outputs": [],
      "stateMutability": "nonpayable",
      "type": "function"
    },
    {
      "inputs": [
        {
          "internalType": "address",
          "name": "from",
          "type": "address"
        },
        {
          "internalType": "address",
          "name": "to",
          "type": "address"
        },
        {
          "internalType": "uint256",
          "name": "tokenId",
          "type": "uint256"
        }
      ],
      "name": "safeTransferFrom",
      "outputs": [],
      "stateMutability": "nonpayable",
      "type": "function"
    },
    {
      "inputs": [
        {
          "internalType": "address",
          "name": "from",
          "type": "address"
        },
        {
          "internalType": "address",
          "name": "to",
          "type": "address"
        },
        {
          "internalType": "uint256",
          "name": "tokenId",
          "type": "uint256"
        },
        {
          "internalType": "bytes",
          "name": "data",
          "type": "bytes"
        }
      ],
      "name": "safeTransferFrom",
      "outputs": [],
      "stateMutability": "nonpayable",
      "type": "function"
    },
    {
      "inputs": [
        {
          "internalType": "address",
          "name": "operator",
          "type": "address"
        },
        {
          "internalType": "bool",
          "name": "approved",
          "type": "bool"
        }
      ],
      "name": "setApprovalForAll",
      "outputs": [],
      "stateMutability": "nonpayable",
      "type": "function"
    },
    {
      "inputs": [
        {
          "internalType": "string",
          "name": "_newBaseURI",
          "type": "string"
        }
      ],
      "name": "setBaseURI",
      "outputs": [],
      "stateMutability": "nonpayable",
      "type": "function"
    },
    {
      "inputs": [
        {
          "internalType": "bool",
          "name": "_state",
          "type": "bool"
        }
      ],
      "name": "setPause",
      "outputs": [],
      "stateMutability": "nonpayable",
      "type": "function"
    },
    {
      "inputs": [
        {
          "internalType": "bytes4",
          "name": "interfaceId",
          "type": "bytes4"
        }
      ],
      "name": "supportsInterface",
      "outputs": [
        {
          "internalType": "bool",
          "name": "",
          "type": "bool"
        }
      ],
      "stateMutability": "view",
      "type": "function"
    },
    {
      "inputs": [],
      "name": "symbol",
      "outputs": [
        {
          "internalType": "string",
          "name": "",
          "type": "string"
        }
      ],
      "stateMutability": "view",
      "type": "function"
    },
    {
      "inputs": [
        {
          "internalType": "uint256",
          "name": "index",
          "type": "uint256"
        }
      ],
      "name": "tokenByIndex",
      "outputs": [
        {
          "internalType": "uint256",
          "name": "",
          "type": "uint256"
        }
      ],
      "stateMutability": "view",
      "type": "function"
    },
    {
      "inputs": [
        {
          "internalType": "address",
          "name": "owner",
          "type": "address"
        },
        {
          "internalType": "uint256",
          "name": "index",
          "type": "uint256"
        }
      ],
      "name": "tokenOfOwnerByIndex",
      "outputs": [
        {
          "internalType": "uint256",
          "name": "",
          "type": "uint256"
        }
      ],
      "stateMutability": "view",
      "type": "function"
    },
    {
      "inputs": [
        {
          "internalType": "uint256",
          "name": "tokenId",
          "type": "uint256"
        }
      ],
      "name": "tokenURI",
      "outputs": [
        {
          "internalType": "string",
          "name": "",
          "type": "string"
        }
      ],
      "stateMutability": "view",
      "type": "function"
    },
    {
      "inputs": [],
      "name": "totalSupply",
      "outputs": [
        {
          "internalType": "uint256",
          "name": "",
          "type": "uint256"
        }
      ],
      "stateMutability": "view",
      "type": "function"
    },
    {
      "inputs": [
        {
          "internalType": "address",
          "name": "from",
          "type": "address"
        },
        {
          "internalType": "address",
          "name": "to",
          "type": "address"
        },
        {
          "internalType": "uint256",
          "name": "tokenId",
          "type": "uint256"
        }
      ],
      "name": "transferFrom",
      "outputs": [],
      "stateMutability": "nonpayable",
      "type": "function"
    },
    {
      "inputs": [
        {
          "internalType": "address",
          "name": "newOwner",
          "type": "address"
        }
      ],
      "name": "transferOwnership",
      "outputs": [],
      "stateMutability": "nonpayable",
      "type": "function"
    }
  ],
  "bytecode": "0x60c0604052600560808190526402e776562760dc1b60a09081526200002891600c9190620001dc565b5060408051808201909152600580825264173539b7b760d91b60209092019182526200005791600d91620001dc565b5066038d7ea4c68000600e556063600f556010805460ff191690553480156200007f57600080fd5b50604051620029ae380380620029ae833981016040819052620000a2916200034f565b825183908390620000bb906000906020850190620001dc565b508051620000d1906001906020840190620001dc565b505050620000ee620000e86200010260201b60201c565b62000106565b620000f98162000158565b5050506200041d565b3390565b600a80546001600160a01b038381166001600160a01b0319831681179093556040519116919082907f8be0079c531659141344cd1fd0a4f28419497f9722a3daafe3b4186f6b6457e090600090a35050565b620001626200017b565b80516200017790600b906020840190620001dc565b5050565b600a546001600160a01b03163314620001da5760405162461bcd60e51b815260206004820181905260248201527f4f776e61626c653a2063616c6c6572206973206e6f7420746865206f776e6572604482015260640160405180910390fd5b565b828054620001ea90620003e0565b90600052602060002090601f0160209004810192826200020e576000855562000259565b82601f106200022957805160ff191683800117855562000259565b8280016001018555821562000259579182015b82811115620002595782518255916020019190600101906200023c565b50620002679291506200026b565b5090565b5b808211156200026757600081556001016200026c565b634e487b7160e01b600052604160045260246000fd5b600082601f830112620002aa57600080fd5b81516001600160401b0380821115620002c757620002c762000282565b604051601f8301601f19908116603f01168101908282118183101715620002f257620002f262000282565b816040528381526020925086838588010111156200030f57600080fd5b600091505b8382101562000333578582018301518183018401529082019062000314565b83821115620003455760008385830101525b9695505050505050565b6000806000606084860312156200036557600080fd5b83516001600160401b03808211156200037d57600080fd5b6200038b8783880162000298565b94506020860151915080821115620003a257600080fd5b620003b08783880162000298565b93506040860151915080821115620003c757600080fd5b50620003d68682870162000298565b9150509250925092565b600181811c90821680620003f557607f821691505b602082108114156200041757634e487b7160e01b600052602260045260246000fd5b50919050565b612581806200042d6000396000f3fe6080604052600436106101cd5760003560e01c806368ef9d3c116100f7578063b88d4fde11610095578063d5abeb0111610064578063d5abeb01146104fd578063e0391b0914610513578063e985e9c514610535578063f2fde38b1461057e57600080fd5b8063b88d4fde14610488578063bedb86fb146104a8578063c6682862146104c8578063c87b56dd146104dd57600080fd5b80637bf08621116100d15780637bf08621146104155780638da5cb5b1461043557806395d89b4114610453578063a22cb4651461046857600080fd5b806368ef9d3c146103b357806370a08231146103e0578063715018a61461040057600080fd5b806323b872dd1161016f578063509c71801161013e578063509c71801461035157806355f804b3146103595780635c975abb146103795780636352211e1461039357600080fd5b806323b872dd146102d15780632f745c59146102f157806342842e0e146103115780634f6ccce71461033157600080fd5b8063081812fc116101ab578063081812fc1461023e578063095ea7b31461027657806313faede61461029857806318160ddd146102bc57600080fd5b806301ffc9a7146101d257806303b0f38d1461020757806306fdde0314610229575b600080fd5b3480156101de57600080fd5b506101f26101ed366004611ea6565b61059e565b60405190151581526020015b60405180910390f35b34801561021357600080fd5b5061021c6105c9565b6040516101fe9190611f1b565b34801561023557600080fd5b5061021c610657565b34801561024a57600080fd5b5061025e610259366004611f2e565b6106e9565b6040516001600160a01b0390911681526020016101fe565b34801561028257600080fd5b50610296610291366004611f63565b610710565b005b3480156102a457600080fd5b506102ae600e5481565b6040519081526020016101fe565b3480156102c857600080fd5b506008546102ae565b3480156102dd57600080fd5b506102966102ec366004611f8d565b61082b565b3480156102fd57600080fd5b506102ae61030c366004611f63565b61085c565b34801561031d57600080fd5b5061029661032c366004611f8d565b6108f2565b34801561033d57600080fd5b506102ae61034c366004611f2e565b61090d565b6102966109a0565b34801561036557600080fd5b50610296610374366004612055565b610bf7565b34801561038557600080fd5b506010546101f29060ff1681565b34801561039f57600080fd5b5061025e6103ae366004611f2e565b610c16565b3480156103bf57600080fd5b506103d36103ce366004611f2e565b610c76565b6040516101fe91906120ed565b3480156103ec57600080fd5b506102ae6103fb366004612100565b610dcd565b34801561040c57600080fd5b50610296610e53565b34801561042157600080fd5b50610296610430366004611f63565b610e67565b34801561044157600080fd5b50600a546001600160a01b031661025e565b34801561045f57600080fd5b5061021c610ecf565b34801561047457600080fd5b5061029661048336600461212b565b610ede565b34801561049457600080fd5b506102966104a336600461215e565b610ee9565b3480156104b457600080fd5b506102966104c33660046121da565b610f21565b3480156104d457600080fd5b5061021c610f3c565b3480156104e957600080fd5b5061021c6104f8366004611f2e565b610f49565b34801561050957600080fd5b506102ae600f5481565b34801561051f57600080fd5b50610528611027565b6040516101fe91906121f5565b34801561054157600080fd5b506101f2610550366004612257565b6001600160a01b03918216600090815260056020908152604080832093909416825291909152205460ff1690565b34801561058a57600080fd5b50610296610599366004612100565b61114d565b60006001600160e01b0319821663780e9d6360e01b14806105c357506105c3826111c6565b92915050565b600c80546105d690612281565b80601f016020809104026020016040519081016040528092919081815260200182805461060290612281565b801561064f5780601f106106245761010080835404028352916020019161064f565b820191906000526020600020905b81548152906001019060200180831161063257829003601f168201915b505050505081565b60606000805461066690612281565b80601f016020809104026020016040519081016040528092919081815260200182805461069290612281565b80156106df5780601f106106b4576101008083540402835291602001916106df565b820191906000526020600020905b8154815290600101906020018083116106c257829003601f168201915b5050505050905090565b60006106f482611216565b506000908152600460205260409020546001600160a01b031690565b600061071b82610c16565b9050806001600160a01b0316836001600160a01b0316141561078e5760405162461bcd60e51b815260206004820152602160248201527f4552433732313a20617070726f76616c20746f2063757272656e74206f776e656044820152603960f91b60648201526084015b60405180910390fd5b336001600160a01b03821614806107aa57506107aa8133610550565b61081c5760405162461bcd60e51b815260206004820152603d60248201527f4552433732313a20617070726f76652063616c6c6572206973206e6f7420746f60448201527f6b656e206f776e6572206f7220617070726f76656420666f7220616c6c0000006064820152608401610785565b6108268383611275565b505050565b61083533826112e3565b6108515760405162461bcd60e51b8152600401610785906122bc565b610826838383611362565b600061086783610dcd565b82106108c95760405162461bcd60e51b815260206004820152602b60248201527f455243373231456e756d657261626c653a206f776e657220696e646578206f7560448201526a74206f6620626f756e647360a81b6064820152608401610785565b506001600160a01b03919091166000908152600660209081526040808320938352929052205490565b61082683838360405180602001604052806000815250610ee9565b600061091860085490565b821061097b5760405162461bcd60e51b815260206004820152602c60248201527f455243373231456e756d657261626c653a20676c6f62616c20696e646578206f60448201526b7574206f6620626f756e647360a01b6064820152608401610785565b6008828154811061098e5761098e612309565b90600052602060002001549050919050565b60006109ab60085490565b60105490915060ff1615610a015760405162461bcd60e51b815260206004820152601760248201527f4e46547320756e646572206d61696e74656e616e6365210000000000000000006044820152606401610785565b600f54811115610a535760405162461bcd60e51b815260206004820152601860248201527f536f72727920616c6c204e46547320736f6c64206f75742100000000000000006044820152606401610785565b600a546001600160a01b03163314610ab757600e54341015610ab75760405162461bcd60e51b815260206004820152601960248201527f536f72727920696e73756666696369656e742066756e647321000000000000006044820152606401610785565b610acb33610ac6836001612335565b6114d3565b60116040518060a00160405280836001610ae59190612335565b8152336020820152346040820152606001610b09610b04856001612335565b6114ed565b81524260209182015282546001808201855560009485529382902083516005909202019081558282015193810180546001600160a01b0319166001600160a01b03909516949094179093556040820151600284015560608201518051929392610b789260038501920190611df7565b5060809190910151600490910155610b946104f8826001612335565b604051610ba1919061234d565b604051908190039020337fb9508407a6eccb191d8da3286f4173697cf95604e9ea192fe5ab7c862b5221f6610bd7846001612335565b60408051918252346020830152429082015260600160405180910390a350565b610bff611537565b8051610c1290600b906020840190611df7565b5050565b6000818152600260205260408120546001600160a01b0316806105c35760405162461bcd60e51b8152602060048201526018602482015277115490cdcc8c4e881a5b9d985b1a59081d1bdad95b88125160421b6044820152606401610785565b610cb16040518060a001604052806000815260200160006001600160a01b031681526020016000815260200160608152602001600081525090565b6011610cbe600184612369565b81548110610cce57610cce612309565b90600052602060002090600502016040518060a0016040529081600082015481526020016001820160009054906101000a90046001600160a01b03166001600160a01b03166001600160a01b0316815260200160028201548152602001600382018054610d3a90612281565b80601f0160208091040260200160405190810160405280929190818152602001828054610d6690612281565b8015610db35780601f10610d8857610100808354040283529160200191610db3565b820191906000526020600020905b815481529060010190602001808311610d9657829003601f168201915b505050505081526020016004820154815250509050919050565b60006001600160a01b038216610e375760405162461bcd60e51b815260206004820152602960248201527f4552433732313a2061646472657373207a65726f206973206e6f7420612076616044820152683634b21037bbb732b960b91b6064820152608401610785565b506001600160a01b031660009081526003602052604090205490565b610e5b611537565b610e656000611591565b565b610e6f611537565b6000826001600160a01b03168260405160006040518083038185875af1925050503d8060008114610ebc576040519150601f19603f3d011682016040523d82523d6000602084013e610ec1565b606091505b505090508061082657600080fd5b60606001805461066690612281565b610c123383836115e3565b610ef333836112e3565b610f0f5760405162461bcd60e51b8152600401610785906122bc565b610f1b848484846116b2565b50505050565b610f29611537565b6010805460ff1916911515919091179055565b600d80546105d690612281565b6000818152600260205260409020546060906001600160a01b0316610fc85760405162461bcd60e51b815260206004820152602f60248201527f4552433732314d657461646174613a2055524920717565727920666f72206e6f60448201526e3732bc34b9ba32b73a103a37b5b2b760891b6064820152608401610785565b6000610fd26116e5565b90506000815111610ff25760405180602001604052806000815250611020565b80610ffc846116f4565b600d60405160200161101093929190612380565b6040516020818303038152906040525b9392505050565b60606011805480602002602001604051908101604052809291908181526020016000905b828210156111445760008481526020908190206040805160a081018252600586029092018054835260018101546001600160a01b0316938301939093526002830154908201526003820180549192916060840191906110a990612281565b80601f01602080910402602001604051908101604052809291908181526020018280546110d590612281565b80156111225780601f106110f757610100808354040283529160200191611122565b820191906000526020600020905b81548152906001019060200180831161110557829003601f168201915b505050505081526020016004820154815250508152602001906001019061104b565b50505050905090565b611155611537565b6001600160a01b0381166111ba5760405162461bcd60e51b815260206004820152602660248201527f4f776e61626c653a206e6577206f776e657220697320746865207a65726f206160448201526564647265737360d01b6064820152608401610785565b6111c381611591565b50565b60006001600160e01b031982166380ac58cd60e01b14806111f757506001600160e01b03198216635b5e139f60e01b145b806105c357506301ffc9a760e01b6001600160e01b03198316146105c3565b6000818152600260205260409020546001600160a01b03166111c35760405162461bcd60e51b8152602060048201526018602482015277115490cdcc8c4e881a5b9d985b1a59081d1bdad95b88125160421b6044820152606401610785565b600081815260046020526040902080546001600160a01b0319166001600160a01b03841690811790915581906112aa82610c16565b6001600160a01b03167f8c5be1e5ebec7d5bd14f71427d1e84f3dd0314c0f7b2291e5b200ac8c7c3b92560405160405180910390a45050565b6000806112ef83610c16565b9050806001600160a01b0316846001600160a01b0316148061133657506001600160a01b0380821660009081526005602090815260408083209388168352929052205460ff165b8061135a5750836001600160a01b031661134f846106e9565b6001600160a01b0316145b949350505050565b826001600160a01b031661137582610c16565b6001600160a01b03161461139b5760405162461bcd60e51b815260040161078590612444565b6001600160a01b0382166113fd5760405162461bcd60e51b8152602060048201526024808201527f4552433732313a207472616e7366657220746f20746865207a65726f206164646044820152637265737360e01b6064820152608401610785565b61140a8383836001611791565b826001600160a01b031661141d82610c16565b6001600160a01b0316146114435760405162461bcd60e51b815260040161078590612444565b600081815260046020908152604080832080546001600160a01b03199081169091556001600160a01b0387811680865260038552838620805460001901905590871680865283862080546001019055868652600290945282852080549092168417909155905184937fddf252ad1be2c89b69c2b068fc378daa952ba7f163c4a11628f55a4df523b3ef91a4505050565b610c128282604051806020016040528060008152506118c5565b606060006114f96116e5565b905060008151116115195760405180602001604052806000815250611020565b80611523846116f4565b600c60405160200161101093929190612380565b600a546001600160a01b03163314610e655760405162461bcd60e51b815260206004820181905260248201527f4f776e61626c653a2063616c6c6572206973206e6f7420746865206f776e65726044820152606401610785565b600a80546001600160a01b038381166001600160a01b0319831681179093556040519116919082907f8be0079c531659141344cd1fd0a4f28419497f9722a3daafe3b4186f6b6457e090600090a35050565b816001600160a01b0316836001600160a01b031614156116455760405162461bcd60e51b815260206004820152601960248201527f4552433732313a20617070726f766520746f2063616c6c6572000000000000006044820152606401610785565b6001600160a01b03838116600081815260056020908152604080832094871680845294825291829020805460ff191686151590811790915591519182527f17307eab39ab6107e8899845ad3d59bd9653f200f220920489ca2b5937696c31910160405180910390a3505050565b6116bd848484611362565b6116c9848484846118f8565b610f1b5760405162461bcd60e51b815260040161078590612489565b6060600b805461066690612281565b60606000611701836119f6565b600101905060008167ffffffffffffffff81111561172157611721611fc9565b6040519080825280601f01601f19166020018201604052801561174b576020820181803683370190505b5090508181016020015b600019016f181899199a1a9b1b9c1cb0b131b232b360811b600a86061a8153600a850494508461178457611789565b611755565b509392505050565b60018111156118005760405162461bcd60e51b815260206004820152603560248201527f455243373231456e756d657261626c653a20636f6e7365637574697665207472604482015274185b9cd9995c9cc81b9bdd081cdd5c1c1bdc9d1959605a1b6064820152608401610785565b816001600160a01b03851661185c5761185781600880546000838152600960205260408120829055600182018355919091527ff3f7a9fe364faab93b216da50a3214154f22a0a2b415b23a84c8169e8b636ee30155565b61187f565b836001600160a01b0316856001600160a01b03161461187f5761187f8582611ace565b6001600160a01b03841661189b5761189681611b6b565b6118be565b846001600160a01b0316846001600160a01b0316146118be576118be8482611c1a565b5050505050565b6118cf8383611c5e565b6118dc60008484846118f8565b6108265760405162461bcd60e51b815260040161078590612489565b60006001600160a01b0384163b156119eb57604051630a85bd0160e11b81526001600160a01b0385169063150b7a029061193c9033908990889088906004016124db565b6020604051808303816000875af1925050508015611977575060408051601f3d908101601f1916820190925261197491810190612518565b60015b6119d1573d8080156119a5576040519150601f19603f3d011682016040523d82523d6000602084013e6119aa565b606091505b5080516119c95760405162461bcd60e51b815260040161078590612489565b805181602001fd5b6001600160e01b031916630a85bd0160e11b14905061135a565b506001949350505050565b60008072184f03e93ff9f4daa797ed6e38ed64bf6a1f0160401b8310611a355772184f03e93ff9f4daa797ed6e38ed64bf6a1f0160401b830492506040015b6d04ee2d6d415b85acef81000000008310611a61576d04ee2d6d415b85acef8100000000830492506020015b662386f26fc100008310611a7f57662386f26fc10000830492506010015b6305f5e1008310611a97576305f5e100830492506008015b6127108310611aab57612710830492506004015b60648310611abd576064830492506002015b600a83106105c35760010192915050565b60006001611adb84610dcd565b611ae59190612369565b600083815260076020526040902054909150808214611b38576001600160a01b03841660009081526006602090815260408083208584528252808320548484528184208190558352600790915290208190555b5060009182526007602090815260408084208490556001600160a01b039094168352600681528383209183525290812055565b600854600090611b7d90600190612369565b60008381526009602052604081205460088054939450909284908110611ba557611ba5612309565b906000526020600020015490508060088381548110611bc657611bc6612309565b6000918252602080832090910192909255828152600990915260408082208490558582528120556008805480611bfe57611bfe612535565b6001900381819060005260206000200160009055905550505050565b6000611c2583610dcd565b6001600160a01b039093166000908152600660209081526040808320868452825280832085905593825260079052919091209190915550565b6001600160a01b038216611cb45760405162461bcd60e51b815260206004820181905260248201527f4552433732313a206d696e7420746f20746865207a65726f20616464726573736044820152606401610785565b6000818152600260205260409020546001600160a01b031615611d195760405162461bcd60e51b815260206004820152601c60248201527f4552433732313a20746f6b656e20616c7265616479206d696e746564000000006044820152606401610785565b611d27600083836001611791565b6000818152600260205260409020546001600160a01b031615611d8c5760405162461bcd60e51b815260206004820152601c60248201527f4552433732313a20746f6b656e20616c7265616479206d696e746564000000006044820152606401610785565b6001600160a01b038216600081815260036020908152604080832080546001019055848352600290915280822080546001600160a01b0319168417905551839291907fddf252ad1be2c89b69c2b068fc378daa952ba7f163c4a11628f55a4df523b3ef908290a45050565b828054611e0390612281565b90600052602060002090601f016020900481019282611e255760008555611e6b565b82601f10611e3e57805160ff1916838001178555611e6b565b82800160010185558215611e6b579182015b82811115611e6b578251825591602001919060010190611e50565b50611e77929150611e7b565b5090565b5b80821115611e775760008155600101611e7c565b6001600160e01b0319811681146111c357600080fd5b600060208284031215611eb857600080fd5b813561102081611e90565b60005b83811015611ede578181015183820152602001611ec6565b83811115610f1b5750506000910152565b60008151808452611f07816020860160208601611ec3565b601f01601f19169290920160200192915050565b6020815260006110206020830184611eef565b600060208284031215611f4057600080fd5b5035919050565b80356001600160a01b0381168114611f5e57600080fd5b919050565b60008060408385031215611f7657600080fd5b611f7f83611f47565b946020939093013593505050565b600080600060608486031215611fa257600080fd5b611fab84611f47565b9250611fb960208501611f47565b9150604084013590509250925092565b634e487b7160e01b600052604160045260246000fd5b600067ffffffffffffffff80841115611ffa57611ffa611fc9565b604051601f8501601f19908116603f0116810190828211818310171561202257612022611fc9565b8160405280935085815286868601111561203b57600080fd5b858560208301376000602087830101525050509392505050565b60006020828403121561206757600080fd5b813567ffffffffffffffff81111561207e57600080fd5b8201601f8101841361208f57600080fd5b61135a84823560208401611fdf565b8051825260018060a01b036020820151166020830152604081015160408301526000606082015160a060608501526120d960a0850182611eef565b608093840151949093019390935250919050565b602081526000611020602083018461209e565b60006020828403121561211257600080fd5b61102082611f47565b80358015158114611f5e57600080fd5b6000806040838503121561213e57600080fd5b61214783611f47565b91506121556020840161211b565b90509250929050565b6000806000806080858703121561217457600080fd5b61217d85611f47565b935061218b60208601611f47565b925060408501359150606085013567ffffffffffffffff8111156121ae57600080fd5b8501601f810187136121bf57600080fd5b6121ce87823560208401611fdf565b91505092959194509250565b6000602082840312156121ec57600080fd5b6110208261211b565b6000602080830181845280855180835260408601915060408160051b870101925083870160005b8281101561224a57603f1988860301845261223885835161209e565b9450928501929085019060010161221c565b5092979650505050505050565b6000806040838503121561226a57600080fd5b61227383611f47565b915061215560208401611f47565b600181811c9082168061229557607f821691505b602082108114156122b657634e487b7160e01b600052602260045260246000fd5b50919050565b6020808252602d908201527f4552433732313a2063616c6c6572206973206e6f7420746f6b656e206f776e6560408201526c1c881bdc88185c1c1c9bdd9959609a1b606082015260800190565b634e487b7160e01b600052603260045260246000fd5b634e487b7160e01b600052601160045260246000fd5b600082198211156123485761234861231f565b500190565b6000825161235f818460208701611ec3565b9190910192915050565b60008282101561237b5761237b61231f565b500390565b6000845160206123938285838a01611ec3565b8551918401916123a68184848a01611ec3565b8554920191600090600181811c90808316806123c357607f831692505b8583108114156123e157634e487b7160e01b85526022600452602485fd5b8080156123f5576001811461240657612433565b60ff19851688528388019550612433565b60008b81526020902060005b8581101561242b5781548a820152908401908801612412565b505083880195505b50939b9a5050505050505050505050565b60208082526025908201527f4552433732313a207472616e736665722066726f6d20696e636f72726563742060408201526437bbb732b960d91b606082015260800190565b60208082526032908201527f4552433732313a207472616e7366657220746f206e6f6e20455243373231526560408201527131b2b4bb32b91034b6b83632b6b2b73a32b960711b606082015260800190565b6001600160a01b038581168252841660208201526040810183905260806060820181905260009061250e90830184611eef565b9695505050505050565b60006020828403121561252a57600080fd5b815161102081611e90565b634e487b7160e01b600052603160045260246000fdfea2646970667358221220fcdb592cfbd298e90beaba365e150c6c3ca7bb2265eb739169670fbc4d38495064736f6c634300080b0033",
  "linkReferences": {},
  "deployedLinkReferences": {}
}